:100000000C9463000C948B000C948B000C94D5061C
:100010000C94D5060C94D5060C948B000C948B0094
:100020000C948B000C948B000C948B000C94190690
:100030000C948B000C948B000C948B000C948B0014
:100040000C9477050C948B000C94E7050C94C10577
:100050000C948B000C948B000C948B000C948B00F4
:100060000C948B000C948B000000000024002700EF
:100070002A0000000008000201000003040700003D
:1000800000000000000000000000230026002900FE
:1000900000000000250028002B00040404040404D0
:1000A0000404020202020202030303030303010227
:1000B00004081020408001020408102001020408F6
:1000C0001020AD07500D11241FBECFEFD8E0DEBFCA
:1000D000CDBF11E0A0E0B1E0E0E9F0E202C00590A0
:1000E0000D92AE33B107D9F722E0AEE3B1E001C023
:1000F0001D92A438B207E1F710E0C2E6D0E004C0D8
:100100002197FE010E94260EC136D107C9F70E9431
:1001100076080C943B100C940000833081F028F496
:10012000813099F08230A9F008958730A9F08830A5
:10013000C9F08430B1F4809180008F7D03C080913C
:1001400080008F7780938000089584B58F7784BD79
:10015000089584B58F7DFBCF8091B0008F77809319
:10016000B00008958091B0008F7DF9CF1F93CF9399
:10017000DF93282F30E0F901EE58FF4F8491F90109
:10018000E255FF4FD491F901E656FF4FC491CC23BD
:10019000A9F0162F81110E948D00EC2FF0E0EE0FD8
:1001A000FF1FE057FF4FA591B4918FB7F894EC91E2
:1001B000111108C0D095DE23DC938FBFDF91CF9162
:1001C0001F910895DE2BF8CFCF93DF9390E0FC01D1
:1001D000E255FF4F249186569F4FFC01849188235E
:1001E000D1F090E0880F991FFC01E859FF4FA591CD
:1001F000B491FC01E057FF4FC591D49161110EC03D
:100200009FB7F8948C91E22FE0958E238C932881F0
:10021000E223E8839FBFDF91CF9108958FB7F894D1
:10022000EC91E22BEC938FBFF6CF3FB7F89480911F
:10023000AD019091AE01A091AF01B091B00126B592
:10024000A89B05C02F3F19F00196A11DB11D3FBF0E
:10025000BA2FA92F982F8827BC01CD01620F711DDD
:10026000811D911D42E0660F771F881F991F4A95D7
:10027000D1F708958F929F92AF92BF92CF92DF9263
:10028000EF92FF924B015C010E9415016B017C0112
:100290000E9415016C197D098E099F09683E734003
:1002A00081059105A8F321E0821A9108A108B108FF
:1002B00088EEC80E83E0D81EE11CF11C8114910465
:1002C000A104B10429F7FF90EF90DF90CF90BF9089
:1002D000AF909F908F9008950895AF92BF92CF9264
:1002E000DF92EF92FF920F931F93CF93DF936C01F6
:1002F0007B018B01040F151FEB015E01AE18BF08D7
:10030000C017D10759F06991D601ED91FC91019088
:10031000F081E02DC6010995892B79F7C501DF91A0
:10032000CF911F910F91FF90EF90DF90CF90BF90F2
:10033000AF900895FC01538D448D252F30E0842F1C
:1003400090E0821B930B541710F0CF9608950197FD
:100350000895FC01918D828D981761F0A28DAE0FEA
:10036000BF2FB11D5D968C91928D9F5F9F73928F71
:1003700090E008958FEF9FEF0895FC01918D828D9D
:10038000981731F0828DE80FF11D858D90E008956A
:100390008FEF9FEF0895FC01918D228D892F90E0C2
:1003A000805C9F4F821B91098F739927089585EB7D
:1003B00091E00E94CB0121E0892B09F420E0822FFB
:1003C000089580E090E0892B29F00E94D7018111E7
:1003D0000C9400000895FC01A48DA80FB92FB11D45
:1003E000A35ABF4F2C91848D90E001968F7399276B
:1003F000848FA689B7892C93A089B1898C91837049
:1004000080648C93938D848D981306C00288F38941
:10041000E02D80818F7D80830895EF92FF920F936E
:100420001F93CF93DF93EC0181E0888F9B8D8C8DA0
:1004300098131AC0E889F989808185FF15C09FB794
:10044000F894EE89FF896083E889F9898081837057
:10045000806480839FBF81E090E0DF91CF911F9106
:100460000F91FF90EF900895F62E0B8D10E00F5F27
:100470001F4F0F731127E02E8C8D8E110CC00FB6FD
:1004800007FCFACFE889F989808185FFF5CFCE0195
:100490000E94EB01F1CFEB8DEC0FFD2FF11DE35A24
:1004A000FF4FF0829FB7F8940B8FEA89FB89808118
:1004B0008062CFCFCF93DF93EC01888D8823B9F092
:1004C000AA89BB89E889F9898C9185FD03C080815F
:1004D00086FD0DC00FB607FCF7CF8C9185FFF2CFDC
:1004E000808185FFEDCFCE010E94EB01E9CFDF9146
:1004F000CF910895CF92DF92EF92FF92CF93DF9347
:10050000EC01603282E07807CCF5653B710514F0B0
:1005100064EB70E0898128E830E0281B310987FD11
:100520003395220F331F220F331F6901330FEE085B
:10053000FF088A8128E532E0281B310987FD3395C1
:10054000220F331F220F331F032E000C440B550BB9
:100550002C193D094E095F09DB0177FF02C0B0E0AD
:10056000A0E00E94960D24EB30E040E050E00E94B5
:100570006C0DC20ED31EE41EF51EB601E881EC30F0
:1005800070F5298188E890E0821B910927FD9395F9
:10059000880F991F880F991F681779077CF02A81A7
:1005A00088E592E0821B910927FD9395880F991F9A
:1005B000880F991F681779070CF4CB010297880FF1
:1005C000991F4FB7F8942E2F30E0F901EE0FFF1F5F
:1005D000E20FF31FE058FE4F928381834FBFDF91FC
:1005E000CF91FF90EF90DF90CF9008951F93CF931E
:1005F000DF93EC01162F88818C3008F04EC061E04B
:10060000812F0E94E4008881282F30E0F901EE0F4D
:10061000FF1FE20FF31FE058FE4F1F736081607CE5
:10062000612B608319821A822CE0622F0E94060ED1
:10063000829FB001112430E020E0AB01420F531F34
:10064000FA01EE0FFF1FE40FF51FE058FE4F9081F7
:1006500096FD16C02F5F3F4F2C30310571F7811189
:100660000FC01092800082E080938100109285007C
:1006700010928400B19A80916F00826080936F0025
:10068000E8818E2F90E0FC01EE0FFF1FE80FF91FAD
:10069000E058FE4F8081806480838881DF91CF9114
:1006A0001F9108952091A6013091A70128173907BD
:1006B00071F49091A4018091A501981741F0E09107
:1006C000A401F0E0E25CFE4F808190E008958FEF9E
:1006D0009FEF08950895EF92FF920F931F93CF938A
:1006E000DF93DC015C96ED90FC905D97E114F104E2
:1006F00079F481E090E013969C938E93129790E0AA
:1007000080E0DF91CF911F910F91FF90EF900895BE
:100710005196ED91FC91529750968C915097982F4D
:1007200090950FB75E962C915E97122F127021FD57
:100730006095F8942081112319F1282B2083E7017B
:100740002197F1F728E0462F50E0308160FF1AC072
:10075000382B3083E7012197F1F7BA01759567953A
:10076000215089F7112381F08081892380830FBF75
:100770005C968D919C910197F1F781E090E0C1CF5B
:100780002923DCCF3923E5CF9081892BEFCF20912E
:10079000A6013091A7012817390771F48091A501AE
:1007A0002091A40190E0805C9F4F821B910960E43E
:1007B00070E00E94120E089590E080E0089520916C
:1007C000A6013091A70128173907B9F49091A40127
:1007D0008091A501981789F0E091A401F0E0E25C16
:1007E000FE4F80812091A40130E02F5F3F4F2F7397
:1007F00033272093A40190E008958FEF9FEF089591
:100800002FB7F8948091B1019091B201A091B301FA
:10081000B091B4012FBF80935A0290935B02A093D2
:100820005C02B0935D0282E592E00E94DF0397FFD5
:1008300026C02FB7F8948091B1019091B201A09198
:10084000B301B091B4012FBF40915A0250915B02A5
:1008500060915C0270915D02841B950BA60BB70B37
:10086000409156025091570260915802709159027E
:1008700084179507A607B707B0F28FEF9FEF08958B
:1008800090E080E00895EF92FF920F931F93CF9333
:10089000DF9300D01F92CDB7DEB77B0129833A8367
:1008A0004B838C010E151F0574F0B801CE01019623
:1008B0000E947A026AE070E080E090E00E943A01D3
:1008C00001501109EFCFC8010F900F900F90DF91E9
:1008D000CF911F910F91FF90EF900895EF92FF92AB
:1008E0000F931F93CF93DF9300D01F92CDB7DEB746
:1008F0007B0129833A834B838C01E016F10674F067
:10090000B801CE0101960E947A026AE070E080E0B0
:1009100090E00E943A010F5F1F4FEFCFC8010F9088
:100920000F900F90DF91CF911F910F91FF90EF905B
:1009300008950F931F9390E0FC01E255FF4F6491DF
:10094000FC01E656FF4FE491F0E0EE0FFF1FEA577F
:10095000FF4F8591949100E412E42FE030E040E0F5
:100960000E944D07611571058105910529F06F5FA2
:100970007F4F8F4F9F4F9F701F910F910895FB01E5
:1009800001900020E9F73197AF01461B570BDC01BE
:10099000ED91FC910280F381E02D09948F929F925A
:1009A000AF92BF92CF92DF92EF92FF920F931F937D
:1009B000CF93DF93CDB7DEB7A1970FB6F894DEBF24
:1009C0000FBECDBF6C01990FEE08FF08F7FE43C0C4
:1009D0006DE285EB91E00E940D028C012227332706
:1009E000A9012C193D094E095F0919A2CE01819672
:1009F0007C019AE0892E912CA12CB12CCA01B9015D
:100A0000A50194010E94D50D605DF70162937F01FD
:100A1000211531054105510589F790E080E03097B7
:100A200029F0BF0185EB91E00E94BF04800F911F68
:100A3000A1960FB6F894DEBF0FBECDBFDF91CF9168
:100A40001F910F91FF90EF90DF90CF90BF90AF90EC
:100A50009F908F900895A701960119A28E010F5DB6
:100A60001F4F8AE0C82ED12CE12CF12CCA01B9010C
:100A7000A70196010E94D50D605DF80162938F0178
:100A8000211531054105510589F790E080E0309747
:100A900079F2BF0185EB91E00E94BF04C9CF0F93AB
:100AA0001F93CF93DF93EC0188819981009759F0D0
:100AB0002A813B812617370730F081E0DF91CF9103
:100AC0001F910F9108958B016F5F7F4F0E94650FFB
:100AD000009759F0998388831B830A832C813D8179
:100AE000232B59F7FC011082E8CF80E0E7CF1F925B
:100AF0000F920FB60F9211242F933F938F939F93D2
:100B0000AF93BF938091B1019091B201A091B301D5
:100B1000B091B4013091AC0123E0230F2D3758F58B
:100B20000196A11DB11D2093AC018093B10190935A
:100B3000B201A093B301B093B4018091AD01909143
:100B4000AE01A091AF01B091B0010196A11DB11D00
:100B50008093AD019093AE01A093AF01B093B0012B
:100B6000BF91AF919F918F913F912F910F900FBEA9
:100B70000F901F90189526E8230F0296A11DB11D16
:100B8000D2CF1F920F920FB60F9211242F933F9343
:100B90004F935F936F937F938F939F93AF93BF9385
:100BA000EF93FF9385EB91E00E94EB01FF91EF91B2
:100BB000BF91AF919F918F917F916F915F914F9175
:100BC0003F912F910F900FBE0F901F9018951F927D
:100BD0000F920FB60F9211242F938F939F93EF9341
:100BE000FF93E091C501F091C6018081E091CB01B6
:100BF000F091CC0182FD1BC090818091CE018F5F6E
:100C00008F732091CF01821741F0E091CE01F0E087
:100C1000EB54FE4F958F8093CE01FF91EF919F9102
:100C20008F912F910F900FBE0F901F90189580817C
:100C3000F4CF1F920F920FB60F9211242F933F9370
:100C40004F935F936F937F938F939F93AF93BF93D4
:100C5000CF93DF93EF93FF9380917E01C0917F014B
:100C6000D0E087FF24C0109285001092840080910C
:100C70007E018F5F80937E0180917E01082E000CA3
:100C8000990B8C179D0724F480917E018C30C4F160
:100C90008091840090918500049680349C4908F4EA
:100CA0007AC08091840090918500049676C08091EE
:100CB0007E01082E000C990B8C179D07C4F6E0915D
:100CC0007E018E2FEE0F990BFC01EE0FFF1FE80F38
:100CD000F91FE058FE4F808186FFC9CFE0917E0169
:100CE0008E2FEE0F990BFC01EE0FFF1FE80FF91F7F
:100CF000E058FE4F808160E08F730E94B600B7CF4E
:100D00002091840030918500E0917E018E2FEE0FBE
:100D1000990BFC01EE0FFF1FE80FF91FE058FE4F83
:100D200081819281820F931F909389008093880024
:100D3000E0917E018E2FEE0F990BFC01EE0FFF1F4D
:100D4000E80FF91FE058FE4F808186FF11C0E09147
:100D50007E018E2FEE0F990BFC01EE0FFF1FE80FA7
:100D6000F91FE058FE4F808161E08F730E94B6004A
:100D7000FF91EF91DF91CF91BF91AF919F918F91B3
:100D80007F916F915F914F913F912F910F900FBE87
:100D90000F901F90189580E49CE9909389008093B0
:100DA00088008FEF80937E01E3CF1F920F920FB6E2
:100DB0000F9211242F933F934F935F936F937F93E1
:100DC0008F939F93AF93BF93EF93FF93E091A6010F
:100DD000F091A701309749F0A685B7858585968D56
:100DE00091FF14C09C918923A1F4FF91EF91BF91D1
:100DF000AF919F918F917F916F915F914F913F91B3
:100E00002F910F900FBE0F901F9018959C918923E2
:100E100061F7A389B4899C918589809589238C93F6
:100E2000868997890197F1F7608D718DA685B785C1
:100E3000558538E020E0CB010197F1F7822F90E053
:100E400095958795282F4C91452309F020683150BE
:100E500091F7868D81FD20958091A50190E0019606
:100E60008F7399273091A401381799F0A091A501AB
:100E7000B0E0A25CBE4F2C938093A501828D938D30
:100E80000197F1F7A389B4898C919589892B8C936B
:100E9000ACCF868D8160868FF1CFCF92DF92EF92BB
:100EA000FF920F931F93E82FF92F05C001501109EE
:100EB0002109310961F1908196239417B9F305C096
:100EC000015011092109310911F1908196239413E0
:100ED000F7CFC12CD12CE12CF12C0AC08FEFC81A0E
:100EE000D80AE80AF80A0C151D052E053F0579F009
:100EF00080818623841791F36C2D7D2D8E2D9F2D5F
:100F00001F910F91FF90EF90DF90CF90089560E0D8
:100F100070E080E090E01F910F91FF90EF90DF90E4
:100F2000CF900895FC0190917F019C3098F481E06E
:100F3000890F80937F019083892F90E0FC01EE0F51
:100F4000FF1FE80FF91FE058FE4F88EB9BE09283EC
:100F5000818308958FEF80830895CF92DF92EF927F
:100F6000FF921092B8011092B70198EEC92E93E04B
:100F7000D92EE12CF12CC092B901D092BA01E092A5
:100F8000BB01F092BC0184E191E09093B6018093A3
:100F9000B50185EC90E09093C2018093C10184EC8F
:100FA00090E09093C4018093C30180EC90E0909313
:100FB000C6018093C50181EC90E09093C8018093B5
:100FC000C70182EC90E09093CA018093C90186EC3E
:100FD00090E09093CC018093CB011092CE011092BF
:100FE000CF011092D0011092D1018DE792E00E94C2
:100FF00092078AE792E00E94920787E792E00E94B8
:10100000920784E792E00E94920781E792E00E94B3
:1010100092071092550210925402C0925602D0923A
:101020005702E0925802F092590286E291E09093C2
:101030005302809352021092690210926802109239
:101040006B0210926A0210926D0210926C02109262
:101050006F0210926E02609170026E7F6D7F6093DE
:1010600070026695617081E0682786E00E94B60094
:1010700061E086E00E94E400E4EBF0E0E491E093BC
:101080006202E0EAF0E0E491F0E0EE0FFF1FE057CB
:10109000FF4F85919491909364028093630260E086
:1010A00085E00E94E4008091700281FD04C061E04F
:1010B00085E00E94B60085E080935E02E3EBF0E0FD
:1010C000E491E0935F02EFE9F0E0E491F0E0EE0FED
:1010D000FF1FEA57FF4F859194919093610280938F
:1010E0006002FF90EF90DF90CF900895CF93DF9351
:1010F000CDB7DEB7C054D1090FB6F894DEBF0FBE2E
:10110000CDBF789484B5826084BD84B5816084BD90
:1011100085B5826085BD85B5816085BD80916E0095
:10112000816080936E0010928100809181008260C6
:101130008093810080918100816080938100809103
:1011400080008160809380008091B10084608093F2
:10115000B1008091B00081608093B00080917A00EE
:10116000846080937A0080917A00826080937A0014
:1011700080917A00816080937A0080917A00806803
:1011800080937A001092C10010926D0210926C024E
:1011900010926B0210926A02109269021092680219
:1011A0008DE991E090936F0280936E0290915E02C0
:1011B000963108F047C02DEB30E030936902209360
:1011C00068022BE931E030936B0220936A022CE233
:1011D00031E030936D0220936C022091680084E02E
:1011E000983048F031E09E3008F430E081E001C0F2
:1011F000880F3A95EAF7822B809368002DE630E05D
:10120000983050F02BE630E09E3030F02CE630E0A5
:10121000963110F030E020E03093660220936502B2
:10122000292F30E0983008F01DC181E001C0880FFF
:101230009A95EAF78093670280916E0290916F020F
:101240000197F1F780916C0290916D02892B49F121
:10125000E091A601F091A70182E0E235F80709F1DB
:10126000309739F0A389B4899C9185898095892329
:101270008C93809170028E7F809370021092A501F2
:101280001092A40182E592E09093A7018093A601B9
:10129000E0916502F0916602808190916702892B4E
:1012A0008083E091C501F091C60182E08083E091E6
:1012B000C101F091C2011082E091C301F091C4011B
:1012C0008FEC80831092CD01E091C901F091CA01A9
:1012D00086E08083E091C701F091C8018081806140
:1012E0008083E091C701F091C8018081886080838C
:1012F000E091C701F091C801808180688083E0910E
:10130000C701F091C80180818F7D808380917D022B
:1013100090917E02A0917F028B8F9C8FAD8F8091E8
:101320007A0290917B02A0917C028E8F9F8FA8A35E
:101330008091770290917802A091790289A39AA373
:10134000ABA38091740290917502A09176028CA358
:101350009DA3AEA38091710290917202A09173023D
:101360008FA398A7A9A782E090E09BA78AA783E014
:1013700090E09DA78CA784E090E09FA78EA78CE0CB
:1013800090E099AB88AB8DE090E09BAB8AAB8EE0B0
:101390008CAB8AE1FE017B96DE01119601900D92E5
:1013A0008A95E1F768E070E0CE0101960E94F602AE
:1013B00069E070E0CE0104960E94F6026AE070E0F7
:1013C000CE0107960E94F6026BE070E0CE010A960D
:1013D0000E94F60267E070E0CE010D960E94F602D0
:1013E00060E08A8D0E94E40061E088890E94E40048
:1013F00061E08A890E94E40061E08C890E94E40037
:1014000061E08E890E94E40060E0888D0E94E40023
:1014100061E088890E94B60060E08A890E94B60077
:101420001092AB011092AA0198E0892E912C23E032
:10143000A22EB12C32E0232E312CE091AA01F091A2
:10144000AB01E930F10508F026C3E75DF54F0C94D8
:10145000260E3F0AFE0A1E0BC50BF00B650CA50CF1
:10146000D40CED0C9E3040F42850310981E001C0CD
:10147000880F2A95EAF7DECE2E503109F7CF1EAA43
:101480001DAA18AE1FAA1AAE19AE70E060E0CE0118
:10149000C5960E944F052DA93EA981114FC0211567
:1014A000310519F0C9010E94DC0E1EAA1DAA1AAE50
:1014B00019AE18AE1FAA82E592E00E94C703181663
:1014C00019060CF077C01C8E1B8E1E8E1D8E18A266
:1014D0001F8E70E060E0CE014B960E944F052B8D71
:1014E0003C8D811133C02115310519F0C9010E94CD
:1014F000DC0E1C8E1B8E18A21F8E1E8E1D8E0E944F
:10150000000497FD2BC08BAF1CAE0F8D18A10F5F91
:101510001F4FB801CE014B960E944F05882379F3E7
:101520002B8D3C8D8F8D98A1BE01655C7F4F820F06
:10153000931F0E94341018A30F8FE1CF1AAE19AE7B
:101540006AE371E0C9010E943410B5CF18A21F8E62
:101550006AE371E0C9010E943410D1CF8DA99EA920
:101560000097D9F16B8D7C8D61157105A1F14FA9A3
:1015700058AD2F8D38A14217530768F10E943410DF
:101580008F8D98A19AAF89AF18A21F8E8B8D9C8DDD
:10159000009711F00E94DC0E89AD9AAD892B51F0B5
:1015A00064E371E08DA99EA90E942B1001E010E078
:1015B000892B11F010E000E08DA99EA9009711F091
:1015C0000E94DC0E0130110509F037CFB092AB015B
:1015D000A092AA0132CF0E94DC0E8B8D9C8D9EAB17
:1015E0008DAB8D8D9E8D98AF8FAB8F8D98A19AAF5F
:1015F00089AF1C8E1B8E1E8E1D8EC6CFE0E8F0E0DC
:101600008491ECEBF0E00491E8EAF0E0149111230E
:1016100009F413CF81110E948D00E12FF0E0EE0F4D
:10162000FF1FEA57FF4FA591B491EC910E2309F4E7
:1016300004CF3092AB012092AA01FFCE64EF71E09B
:1016400080E090E00E943A0160E084E00E94B600F1
:1016500061E08CE00E94B60064E670E080E090E01B
:101660000E943A018DE00E94990421966CAF7DAFF3
:101670008EAF9FAF219764E670E080E090E00E941B
:101680003A0160E084E00E94B60060E08CE00E94D5
:10169000B60064E670E080E090E00E943A018DE0E0
:1016A0000E9499046B0164E670E080E090E00E9483
:1016B0003A0161E084E00E94B60061E08CE00E94A3
:1016C000B60064E670E080E090E00E943A018DE0B0
:1016D0000E9499042B0164E670E080E090E00E9493
:1016E0003A0110E000E090E1C916D104A4F1EDAC9C
:1016F000FEAC81E2481651040CF044C091E2E916B8
:10170000F1040CF03FC066E371E082E592E00E94D4
:10171000BF0468E371E082E592E00E94BF0401E04B
:1017200010E086E1C816D104B4F090E249165104E5
:1017300094F08FE1E816F10474F06BE371E082E558
:1017400092E00E94BF0468E371E082E592E00E94AB
:10175000BF0402E010E068EC70E080E090E00E94DE
:101760003A011093A9010093A801C8010E94CE0478
:101770008091A8019091A901009709F45ECE0E9482
:10178000CE0424CF10E000E0CCCF64EF71E080E025
:1017900090E00E943A016AE570E08DE792E00E94D5
:1017A0007A026AE570E08AE792E00E947A026AE5CE
:1017B00070E087E792E00E947A0264E670E084E7D6
:1017C00092E00E947A0264E670E081E792E00E9473
:1017D0007A0284E090E09093AB018093AA012DCE31
:1017E00064EF71E080E090E00E943A0120917D0278
:1017F00030917E0240917F0268EA70E0809108019A
:10180000909109010E946E04909309018093080150
:1018100020917702309178024091790264EB70E078
:1018200080910601909107010E946E049093070138
:101830008093060120917A0230917B0240917C02D4
:1018400062E870E080910401909105010E946E04AD
:101850008C0120917102309172024091730264EB0D
:1018600070E080910201909103010E946E049093B8
:1018700003018093020120917A0230917B02409112
:101880007C0268E270E0C8010E9443049093050165
:101890008093040162E370E080E090E00E943A01EE
:1018A00020917402309175024091760270E060E000
:1018B00080910001909101010E94430490930101E5
:1018C0008093000185E090E086CF64EF71E080E0D6
:1018D00090E00E943A0120917A0230917B0240917F
:1018E0007C0260E570E080910401909105010E9406
:1018F0006E04909305018093040120917D02309144
:101900007E0240917F0260E570E080910801909135
:1019100009010E944304909309018093080162E346
:1019200070E080E090E00E943A018091A8019091DF
:10193000A9018130910519F486E090E04CCF02971F
:1019400009F07BCD87E090E046CF64EF71E080E066
:1019500090E00E943A0120917A0230917B024091FE
:101960007C0268E270E080910401909105010E9480
:1019700043049093050180930401209174023091F7
:101980007502409176026AE570E0809100019091C5
:1019900001010E946E0490930101809300019092D6
:1019A000AB018092AA0149CD64EF71E080E090E044
:1019B0000E943A0120917D0230917E0240917F0287
:1019C00068E270E080910801909109010E9443044F
:1019D0009093090180930801BECF64EF71E080E02D
:1019E00090E00E943A0120917D0230917E02409168
:1019F0007F026FE570E080910801909109010E94DB
:101A00004304909309018093080120917A02309158
:101A10007B0240917C026FE570E08091040190911F
:101A200005010E946E0490930501809304012091AA
:101A3000770230917802409179026FE570E08091F1
:101A40000601909107010E9443049093070180933F
:101A500006012091740230917502409176026AE588
:101A600070E080910001909101010E946E049093BA
:101A700001018093000184E690E09093030180933C
:101A8000020164E670E081E792E00E947A0210921F
:101A9000A9011092A8011092AB011092AA01CDCC1D
:101AA00086E291E090935302809352028091A601C6
:101AB0009091A7018255924071F4E0916502F091F6
:101AC00066029081809167028095892380831092BD
:101AD000A7011092A6010895052E97FB1EF400940D
:101AE0000E94830D57FD07D00E94D50D07FC03D03F
:101AF0004EF40C94830D50954095309521953F4FB1
:101B00004F4F5F4F089590958095709561957F4FE9
:101B10008F4F9F4F08950E94F70DA59F900DB49F82
:101B2000900DA49F800D911D11240895B7FF0C9472
:101B30008B0D0E948B0D821B930B08952F923F9269
:101B40004F925F926F927F928F929F92AF92BF92CD
:101B5000CF92DF92EF92FF920F931F93CF93DF9379
:101B6000CDB7DEB7CA1BDB0B0FB6F894DEBF0FBED6
:101B7000CDBF09942A88398848885F846E847D8423
:101B80008C849B84AA84B984C884DF80EE80FD8025
:101B90000C811B81AA81B981CE0FD11D0FB6F8949B
:101BA000DEBF0FBECDBFED010895A1E21A2EAA1B24
:101BB000BB1BFD010DC0AA1FBB1FEE1FFF1FA217FD
:101BC000B307E407F50720F0A21BB30BE40BF50BFA
:101BD000661F771F881F991F1A9469F76095709583
:101BE000809590959B01AC01BD01CF010895A29F06
:101BF000B001B39FC001A39F700D811D1124911DE1
:101C0000B29F700D811D1124911D0895991B79E0DB
:101C100004C0991F961708F0961B881F7A95C9F77C
:101C20008095089597FB072E16F4009407D077FD52
:101C300009D00E942C0E07FC05D03EF490958195AA
:101C40009F4F0895709561957F4F0895EE0FFF1F88
:101C50000590F491E02D0994AA1BBB1B51E107C02C
:101C6000AA1FBB1FA617B70710F0A61BB70B881F2C
:101C7000991F5A95A9F780959095BC01CD010895BB
:101C80000F931F93CF93DF938230910510F482E07E
:101C900090E0E0918202F091830230E020E0B0E039
:101CA000A0E0309799F42115310509F44AC0281BAA
:101CB000390B24303105D8F58A819B816115710576
:101CC00089F1FB0193838283FE0111C04081518120
:101CD0000281138148175907E0F04817590799F412
:101CE000109761F012960C93129713961C933296EC
:101CF000CF01DF91CF911F910F9108950093820240
:101D000010938302F4CF2115310551F04217530788
:101D100038F0A901DB019A01BD01DF01F801C1CF53
:101D2000EF01F9CF9093830280938202CDCFFE0121
:101D3000E20FF31F81939193225031093983288355
:101D4000D7CF2091800230918102232B41F4209142
:101D50000C0130910D01309381022093800220917B
:101D60000A0130910B012115310541F42DB73EB721
:101D700040910E0150910F01241B350BE091800220
:101D8000F0918102E217F307A0F42E1B3F0B2817F6
:101D9000390778F0AC014E5F5F4F2417350748F0E4
:101DA0004E0F5F1F50938102409380028193919365
:101DB0009FCFF0E0E0E09CCFCF93DF930097E9F076
:101DC000FC01329713821282A0918202B0918302A9
:101DD000ED0130E020E01097A1F420813181820FE5
:101DE000931F20918002309181022817390709F052
:101DF00061C0F0938102E0938002DF91CF9108955A
:101E0000EA01CE17DF07E8F54A815B819E014115A3
:101E10005105B1F7E901FB83EA8349915991C40F58
:101E2000D51FEC17FD0761F4808191810296840F24
:101E3000951FE90199838883828193819B838A839B
:101E4000F0E0E0E012968D919C9113970097B9F520
:101E50002D913C911197CD010296820F931F2091F5
:101E60008002309181022817390739F6309751F5F1
:101E70001092830210928202B0938102A09380029A
:101E8000BCCFD383C28340815181840F951FC81773
:101E9000D90761F44E5F5F4F88819981480F591FC0
:101EA000518340838A819B819383828321153105ED
:101EB00009F0B0CFF0938302E09382029ECFFD0140
:101EC000DC01C0CF13821282D7CFB0E0A0E0EBE6F6
:101ED000FFE00C94A00D8C01009751F4CB010E94FF
:101EE000400E8C01C801CDB7DEB7E0E10C94BC0D0B
:101EF000FC01E60FF71F9C0122503109E217F3079E
:101F000008F49DC0D901CD91DC911197C617D70770
:101F100098F0C530D10530F3CE01049786179707A6
:101F200008F3C61BD70B2297C193D1936D937C9373
:101F3000CF010E94DC0ED6CF5B01AC1ABD0A4C016A
:101F40008C0E9D1EA0918202B0918302512C412CD7
:101F5000F12CE12C109731F5809180029091810253
:101F60008815990509F05CC04616570608F058C058
:101F700080910A0190910B01009741F48DB79EB7B3
:101F800040910E0150910F01841B950BE817F90742
:101F900008F055C0F0938102E0938002F90171834B
:101FA0006083A0CF8D919C91119712966C9012979F
:101FB00013967C901397A815B90559F56C0142E06A
:101FC000C40ED11CCA14DB0420F1AC014A195B0910
:101FD000DA011296159780F06282738251834083F2
:101FE000D9016D937C93E114F10471F0D70113963C
:101FF000FC93EE93129776CF22968C0F9D1FF901DA
:1020000091838083F301EFCFF0938302E093820208
:1020100069CF4816590608F42C017D01D3019ACFE7
:10202000CB010E94400E7C01009749F0AE01B8013F
:102030000E942210C8010E94DC0E870153CF10E0DD
:1020400000E050CFFB01DC0102C001900D92415035
:102050005040D8F70895FB01DC018D910190801963
:102060000110D9F3990B0895FB01DC0101900D9249
:102070000020E1F7089510E0C2E6D0E004C0FE01C0
:102080000E94260E2196C336D107C9F7F894FFCFD8
:102090005A005A0050005000500000008402800096
:1020A000000000000D026D019A015A02CB01A90146
:1020B000BD01000000006B036D0140046A03C7030B
:0E20C000DF035203310052000D0A004E0000F3
:00000001FF
